{
  "_format": "hh-sol-artifact-1",
  "contractName": "Transactions",
  "sourceName": "contracts/Transactions.sol",
  "abi": [
    {
      "anonymous": false,
      "inputs": [
        {
          "indexed": false,
          "internalType": "address",
          "name": "from",
          "type": "address"
        },
        {
          "indexed": false,
          "internalType": "address",
          "name": "receiver",
          "type": "address"
        },
        {
          "indexed": false,
          "internalType": "string",
          "name": "keyword",
          "type": "string"
        },
        {
          "indexed": false,
          "internalType": "string",
          "name": "message",
          "type": "string"
        },
        {
          "indexed": false,
          "internalType": "uint256",
          "name": "amount",
          "type": "uint256"
        },
        {
          "indexed": false,
          "internalType": "uint256",
          "name": "timestamp",
          "type": "uint256"
        }
      ],
      "name": "Transfer",
      "type": "event"
    },
    {
      "inputs": [
        {
          "internalType": "address",
          "name": "receiver",
          "type": "address"
        },
        {
          "internalType": "string",
          "name": "keyword",
          "type": "string"
        },
        {
          "internalType": "string",
          "name": "message",
          "type": "string"
        },
        {
          "internalType": "uint256",
          "name": "amount",
          "type": "uint256"
        }
      ],
      "name": "addToBlockchain",
      "outputs": [],
      "stateMutability": "nonpayable",
      "type": "function"
    },
    {
      "inputs": [],
      "name": "getAllTransactions",
      "outputs": [
        {
          "components": [
            {
              "internalType": "address",
              "name": "sender",
              "type": "address"
            },
            {
              "internalType": "address",
              "name": "receiver",
              "type": "address"
            },
            {
              "internalType": "string",
              "name": "keyword",
              "type": "string"
            },
            {
              "internalType": "string",
              "name": "message",
              "type": "string"
            },
            {
              "internalType": "uint256",
              "name": "amount",
              "type": "uint256"
            },
            {
              "internalType": "uint256",
              "name": "timestamp",
              "type": "uint256"
            }
          ],
          "internalType": "struct Transactions.TransferStruct[]",
          "name": "",
          "type": "tuple[]"
        }
      ],
      "stateMutability": "view",
      "type": "function"
    },
    {
      "inputs": [],
      "name": "getTransactionCount",
      "outputs": [
        {
          "internalType": "uint256",
          "name": "",
          "type": "uint256"
        }
      ],
      "stateMutability": "view",
      "type": "function"
    },
    {
      "inputs": [],
      "name": "transactionCount",
      "outputs": [
        {
          "internalType": "uint256",
          "name": "",
          "type": "uint256"
        }
      ],
      "stateMutability": "view",
      "type": "function"
    },
    {
      "inputs": [
        {
          "internalType": "uint256",
          "name": "",
          "type": "uint256"
        }
      ],
      "name": "transactions",
      "outputs": [
        {
          "internalType": "address",
          "name": "sender",
          "type": "address"
        },
        {
          "internalType": "address",
          "name": "receiver",
          "type": "address"
        },
        {
          "internalType": "string",
          "name": "keyword",
          "type": "string"
        },
        {
          "internalType": "string",
          "name": "message",
          "type": "string"
        },
        {
          "internalType": "uint256",
          "name": "amount",
          "type": "uint256"
        },
        {
          "internalType": "uint256",
          "name": "timestamp",
          "type": "uint256"
        }
      ],
      "stateMutability": "view",
      "type": "function"
    }
  ],
  "bytecode": "0x6080604052348015600f57600080fd5b50610fdd8061001f6000396000f3fe608060405234801561001057600080fd5b50600436106100575760003560e01c80631ebf1eae1461005c57806327506f53146100785780632e7700f0146100965780639ace38c2146100b4578063b77bf600146100e9575b600080fd5b61007660048036038101906100719190610897565b610107565b005b6100806102bb565b60405161008d9190610b25565b60405180910390f35b61009e6104fe565b6040516100ab9190610b56565b60405180910390f35b6100ce60048036038101906100c99190610b71565b610507565b6040516100e096959493929190610bf7565b60405180910390f35b6100f16106a3565b6040516100fe9190610b56565b60405180910390f35b60016000808282546101199190610c95565b9250508190555060016040518060c001604052803373ffffffffffffffffffffffffffffffffffffffff1681526020018673ffffffffffffffffffffffffffffffffffffffff16815260200185815260200184815260200183815260200142815250908060018154018082558091505060019003906000526020600020906006020160009091909190915060008201518160000160006101000a81548173ffffffffffffffffffffffffffffffffffffffff021916908373ffffffffffffffffffffffffffffffffffffffff16021790555060208201518160010160006101000a81548173ffffffffffffffffffffffffffffffffffffffff021916908373ffffffffffffffffffffffffffffffffffffffff16021790555060408201518160020190816102479190610ed5565b50606082015181600301908161025d9190610ed5565b506080820151816004015560a0820151816005015550507fcac37acd9b816b53df17999dec4103ce4ae4a6105327e90b1aef903eef251a8d3385858585426040516102ad96959493929190610bf7565b60405180910390a150505050565b60606001805480602002602001604051908101604052809291908181526020016000905b828210156104f557838290600052602060002090600602016040518060c00160405290816000820160009054906101000a900473ffffffffffffffffffffffffffffffffffffffff1673ffffffffffffffffffffffffffffffffffffffff1673ffffffffffffffffffffffffffffffffffffffff1681526020016001820160009054906101000a900473ffffffffffffffffffffffffffffffffffffffff1673ffffffffffffffffffffffffffffffffffffffff1673ffffffffffffffffffffffffffffffffffffffff1681526020016002820180546103be90610cf8565b80601f01602080910402602001604051908101604052809291908181526020018280546103ea90610cf8565b80156104375780601f1061040c57610100808354040283529160200191610437565b820191906000526020600020905b81548152906001019060200180831161041a57829003601f168201915b5050505050815260200160038201805461045090610cf8565b80601f016020809104026020016040519081016040528092919081815260200182805461047c90610cf8565b80156104c95780601f1061049e576101008083540402835291602001916104c9565b820191906000526020600020905b8154815290600101906020018083116104ac57829003601f168201915b5050505050815260200160048201548152602001600582015481525050815260200190600101906102df565b50505050905090565b60008054905090565b6001818154811061051757600080fd5b90600052602060002090600602016000915090508060000160009054906101000a900473ffffffffffffffffffffffffffffffffffffffff16908060010160009054906101000a900473ffffffffffffffffffffffffffffffffffffffff169080600201805461058690610cf8565b80601f01602080910402602001604051908101604052809291908181526020018280546105b290610cf8565b80156105ff5780601f106105d4576101008083540402835291602001916105ff565b820191906000526020600020905b8154815290600101906020018083116105e257829003601f168201915b50505050509080600301805461061490610cf8565b80601f016020809104026020016040519081016040528092919081815260200182805461064090610cf8565b801561068d5780601f106106625761010080835404028352916020019161068d565b820191906000526020600020905b81548152906001019060200180831161067057829003601f168201915b5050505050908060040154908060050154905086565b60005481565b6000604051905090565b600080fd5b600080fd5b600073ffffffffffffffffffffffffffffffffffffffff82169050919050565b60006106e8826106bd565b9050919050565b6106f8816106dd565b811461070357600080fd5b50565b600081359050610715816106ef565b92915050565b600080fd5b600080fd5b6000601f19601f8301169050919050565b7f4e487b7100000000000000000000000000000000000000000000000000000000600052604160045260246000fd5b61076e82610725565b810181811067ffffffffffffffff8211171561078d5761078c610736565b5b80604052505050565b60006107a06106a9565b90506107ac8282610765565b919050565b600067ffffffffffffffff8211156107cc576107cb610736565b5b6107d582610725565b9050602081019050919050565b82818337600083830152505050565b60006108046107ff846107b1565b610796565b9050828152602081018484840111156108205761081f610720565b5b61082b8482856107e2565b509392505050565b600082601f8301126108485761084761071b565b5b81356108588482602086016107f1565b91505092915050565b6000819050919050565b61087481610861565b811461087f57600080fd5b50565b6000813590506108918161086b565b92915050565b600080600080608085870312156108b1576108b06106b3565b5b60006108bf87828801610706565b945050602085013567ffffffffffffffff8111156108e0576108df6106b8565b5b6108ec87828801610833565b935050604085013567ffffffffffffffff81111561090d5761090c6106b8565b5b61091987828801610833565b925050606061092a87828801610882565b91505092959194509250565b600081519050919050565b600082825260208201905092915050565b6000819050602082019050919050565b61096b816106dd565b82525050565b600081519050919050565b600082825260208201905092915050565b60005b838110156109ab578082015181840152602081019050610990565b60008484015250505050565b60006109c282610971565b6109cc818561097c565b93506109dc81856020860161098d565b6109e581610725565b840191505092915050565b6109f981610861565b82525050565b600060c083016000830151610a176000860182610962565b506020830151610a2a6020860182610962565b5060408301518482036040860152610a4282826109b7565b91505060608301518482036060860152610a5c82826109b7565b9150506080830151610a7160808601826109f0565b5060a0830151610a8460a08601826109f0565b508091505092915050565b6000610a9b83836109ff565b905092915050565b6000602082019050919050565b6000610abb82610936565b610ac58185610941565b935083602082028501610ad785610952565b8060005b85811015610b135784840389528151610af48582610a8f565b9450610aff83610aa3565b925060208a01995050600181019050610adb565b50829750879550505050505092915050565b60006020820190508181036000830152610b3f8184610ab0565b905092915050565b610b5081610861565b82525050565b6000602082019050610b6b6000830184610b47565b92915050565b600060208284031215610b8757610b866106b3565b5b6000610b9584828501610882565b91505092915050565b610ba7816106dd565b82525050565b600082825260208201905092915050565b6000610bc982610971565b610bd38185610bad565b9350610be381856020860161098d565b610bec81610725565b840191505092915050565b600060c082019050610c0c6000830189610b9e565b610c196020830188610b9e565b8181036040830152610c2b8187610bbe565b90508181036060830152610c3f8186610bbe565b9050610c4e6080830185610b47565b610c5b60a0830184610b47565b979650505050505050565b7f4e487b7100000000000000000000000000000000000000000000000000000000600052601160045260246000fd5b6000610ca082610861565b9150610cab83610861565b9250828201905080821115610cc357610cc2610c66565b5b92915050565b7f4e487b7100000000000000000000000000000000000000000000000000000000600052602260045260246000fd5b60006002820490506001821680610d1057607f821691505b602082108103610d2357610d22610cc9565b5b50919050565b60008190508160005260206000209050919050565b60006020601f8301049050919050565b600082821b905092915050565b600060088302610d8b7fffffffffffffffffffffffffffffffffffffffffffffffffffffffffffffffff82610d4e565b610d958683610d4e565b95508019841693508086168417925050509392505050565b6000819050919050565b6000610dd2610dcd610dc884610861565b610dad565b610861565b9050919050565b6000819050919050565b610dec83610db7565b610e00610df882610dd9565b848454610d5b565b825550505050565b600090565b610e15610e08565b610e20818484610de3565b505050565b5b81811015610e4457610e39600082610e0d565b600181019050610e26565b5050565b601f821115610e8957610e5a81610d29565b610e6384610d3e565b81016020851015610e72578190505b610e86610e7e85610d3e565b830182610e25565b50505b505050565b600082821c905092915050565b6000610eac60001984600802610e8e565b1980831691505092915050565b6000610ec58383610e9b565b9150826002028217905092915050565b610ede82610971565b67ffffffffffffffff811115610ef757610ef6610736565b5b610f018254610cf8565b610f0c828285610e48565b600060209050601f831160018114610f3f5760008415610f2d578287015190505b610f378582610eb9565b865550610f9f565b601f198416610f4d86610d29565b60005b82811015610f7557848901518255600182019150602085019450602081019050610f50565b86831015610f925784890151610f8e601f891682610e9b565b8355505b6001600288020188555050505b50505050505056fea2646970667358221220b2d6f195d6c723ef10d2b9dac06668f20456c3a3788b780c62af4132473cb39364736f6c634300081b0033",
  "linkReferences": {},
  "deployedLinkReferences": {}
}